{
  "contractName": "Authentcation",
  "abi": [
    {
      "inputs": [],
      "stateMutability": "nonpayable",
      "type": "constructor"
    },
    {
      "anonymous": false,
      "inputs": [
        {
          "indexed": true,
          "internalType": "address",
          "name": "owner",
          "type": "address"
        },
        {
          "indexed": true,
          "internalType": "address",
          "name": "approved",
          "type": "address"
        },
        {
          "indexed": true,
          "internalType": "uint256",
          "name": "tokenId",
          "type": "uint256"
        }
      ],
      "name": "Approval",
      "type": "event"
    },
    {
      "anonymous": false,
      "inputs": [
        {
          "indexed": true,
          "internalType": "address",
          "name": "owner",
          "type": "address"
        },
        {
          "indexed": true,
          "internalType": "address",
          "name": "operator",
          "type": "address"
        },
        {
          "indexed": false,
          "internalType": "bool",
          "name": "approved",
          "type": "bool"
        }
      ],
      "name": "ApprovalForAll",
      "type": "event"
    },
    {
      "anonymous": false,
      "inputs": [
        {
          "indexed": true,
          "internalType": "address",
          "name": "from",
          "type": "address"
        },
        {
          "indexed": true,
          "internalType": "address",
          "name": "to",
          "type": "address"
        },
        {
          "indexed": true,
          "internalType": "uint256",
          "name": "tokenId",
          "type": "uint256"
        }
      ],
      "name": "Transfer",
      "type": "event"
    },
    {
      "inputs": [
        {
          "internalType": "address",
          "name": "to",
          "type": "address"
        },
        {
          "internalType": "uint256",
          "name": "tokenId",
          "type": "uint256"
        }
      ],
      "name": "approve",
      "outputs": [],
      "stateMutability": "nonpayable",
      "type": "function"
    },
    {
      "inputs": [
        {
          "internalType": "address",
          "name": "owner",
          "type": "address"
        }
      ],
      "name": "balanceOf",
      "outputs": [
        {
          "internalType": "uint256",
          "name": "",
          "type": "uint256"
        }
      ],
      "stateMutability": "view",
      "type": "function",
      "constant": true
    },
    {
      "inputs": [
        {
          "internalType": "uint256",
          "name": "tokenId",
          "type": "uint256"
        }
      ],
      "name": "getApproved",
      "outputs": [
        {
          "internalType": "address",
          "name": "",
          "type": "address"
        }
      ],
      "stateMutability": "view",
      "type": "function",
      "constant": true
    },
    {
      "inputs": [
        {
          "internalType": "address",
          "name": "owner",
          "type": "address"
        },
        {
          "internalType": "address",
          "name": "operator",
          "type": "address"
        }
      ],
      "name": "isApprovedForAll",
      "outputs": [
        {
          "internalType": "bool",
          "name": "",
          "type": "bool"
        }
      ],
      "stateMutability": "view",
      "type": "function",
      "constant": true
    },
    {
      "inputs": [],
      "name": "name",
      "outputs": [
        {
          "internalType": "string",
          "name": "",
          "type": "string"
        }
      ],
      "stateMutability": "view",
      "type": "function",
      "constant": true
    },
    {
      "inputs": [
        {
          "internalType": "uint256",
          "name": "tokenId",
          "type": "uint256"
        }
      ],
      "name": "ownerOf",
      "outputs": [
        {
          "internalType": "address",
          "name": "",
          "type": "address"
        }
      ],
      "stateMutability": "view",
      "type": "function",
      "constant": true
    },
    {
      "inputs": [
        {
          "internalType": "address",
          "name": "from",
          "type": "address"
        },
        {
          "internalType": "address",
          "name": "to",
          "type": "address"
        },
        {
          "internalType": "uint256",
          "name": "tokenId",
          "type": "uint256"
        }
      ],
      "name": "safeTransferFrom",
      "outputs": [],
      "stateMutability": "nonpayable",
      "type": "function"
    },
    {
      "inputs": [
        {
          "internalType": "address",
          "name": "from",
          "type": "address"
        },
        {
          "internalType": "address",
          "name": "to",
          "type": "address"
        },
        {
          "internalType": "uint256",
          "name": "tokenId",
          "type": "uint256"
        },
        {
          "internalType": "bytes",
          "name": "_data",
          "type": "bytes"
        }
      ],
      "name": "safeTransferFrom",
      "outputs": [],
      "stateMutability": "nonpayable",
      "type": "function"
    },
    {
      "inputs": [
        {
          "internalType": "address",
          "name": "operator",
          "type": "address"
        },
        {
          "internalType": "bool",
          "name": "approved",
          "type": "bool"
        }
      ],
      "name": "setApprovalForAll",
      "outputs": [],
      "stateMutability": "nonpayable",
      "type": "function"
    },
    {
      "inputs": [
        {
          "internalType": "bytes4",
          "name": "interfaceId",
          "type": "bytes4"
        }
      ],
      "name": "supportsInterface",
      "outputs": [
        {
          "internalType": "bool",
          "name": "",
          "type": "bool"
        }
      ],
      "stateMutability": "view",
      "type": "function",
      "constant": true
    },
    {
      "inputs": [],
      "name": "symbol",
      "outputs": [
        {
          "internalType": "string",
          "name": "",
          "type": "string"
        }
      ],
      "stateMutability": "view",
      "type": "function",
      "constant": true
    },
    {
      "inputs": [
        {
          "internalType": "uint256",
          "name": "tokenId",
          "type": "uint256"
        }
      ],
      "name": "tokenURI",
      "outputs": [
        {
          "internalType": "string",
          "name": "",
          "type": "string"
        }
      ],
      "stateMutability": "view",
      "type": "function",
      "constant": true
    },
    {
      "inputs": [
        {
          "internalType": "address",
          "name": "from",
          "type": "address"
        },
        {
          "internalType": "address",
          "name": "to",
          "type": "address"
        },
        {
          "internalType": "uint256",
          "name": "tokenId",
          "type": "uint256"
        }
      ],
      "name": "transferFrom",
      "outputs": [],
      "stateMutability": "nonpayable",
      "type": "function"
    },
    {
      "inputs": [
        {
          "internalType": "address",
          "name": "user",
          "type": "address"
        }
      ],
      "name": "generateToken",
      "outputs": [],
      "stateMutability": "nonpayable",
      "type": "function"
    },
    {
      "inputs": [
        {
          "internalType": "address",
          "name": "user",
          "type": "address"
        }
      ],
      "name": "getAuthenticationToken",
      "outputs": [
        {
          "internalType": "uint256",
          "name": "",
          "type": "uint256"
        }
      ],
      "stateMutability": "view",
      "type": "function",
      "constant": true
    },
    {
      "inputs": [
        {
          "internalType": "uint256",
          "name": "code",
          "type": "uint256"
        },
        {
          "internalType": "address",
          "name": "user",
          "type": "address"
        }
      ],
      "name": "validateOTP",
      "outputs": [
        {
          "internalType": "uint256",
          "name": "",
          "type": "uint256"
        }
      ],
      "stateMutability": "nonpayable",
      "type": "function"
    }
  ],
  "bytecode": "0x60806040526102586006553480156200001757600080fd5b506040518060400160405280600d81526020017f41757468656e74636174696f6e000000000000000000000000000000000000008152506040518060400160405280600481526020017f415554480000000000000000000000000000000000000000000000000000000081525081600090805190602001906200009c929190620000be565b508060019080519060200190620000b5929190620000be565b505050620001d3565b828054620000cc906200019d565b90600052602060002090601f016020900481019282620000f057600085556200013c565b82601f106200010b57805160ff19168380011785556200013c565b828001600101855582156200013c579182015b828111156200013b5782518255916020019190600101906200011e565b5b5090506200014b91906200014f565b5090565b5b808211156200016a57600081600090555060010162000150565b5090565b7f4e487b7100000000000000000000000000000000000000000000000000000000600052602260045260246000fd5b60006002820490506001821680620001b657607f821691505b60208210811415620001cd57620001cc6200016e565b5b50919050565b612b8980620001e36000396000f3fe608060405234801561001057600080fd5b50600436106101005760003560e01c806370a0823111610097578063b88d4fde11610066578063b88d4fde146102bd578063c7c48bc6146102d9578063c87b56dd14610309578063e985e9c51461033957610100565b806370a082311461023757806395d89b41146102675780639eab082a14610285578063a22cb465146102a157610100565b806323b872dd116100d357806323b872dd1461019f57806342842e0e146101bb5780636352211e146101d75780636d7482071461020757610100565b806301ffc9a71461010557806306fdde0314610135578063081812fc14610153578063095ea7b314610183575b600080fd5b61011f600480360381019061011a9190611a26565b610369565b60405161012c9190611a6e565b60405180910390f35b61013d61044b565b60405161014a9190611b22565b60405180910390f35b61016d60048036038101906101689190611b7a565b6104dd565b60405161017a9190611be8565b60405180910390f35b61019d60048036038101906101989190611c2f565b610562565b005b6101b960048036038101906101b49190611c6f565b61067a565b005b6101d560048036038101906101d09190611c6f565b6106da565b005b6101f160048036038101906101ec9190611b7a565b6106fa565b6040516101fe9190611be8565b60405180910390f35b610221600480360381019061021c9190611cc2565b6107ac565b60405161022e9190611cfe565b60405180910390f35b610251600480360381019061024c9190611cc2565b6107f8565b60405161025e9190611cfe565b60405180910390f35b61026f6108b0565b60405161027c9190611b22565b60405180910390f35b61029f600480360381019061029a9190611cc2565b610942565b005b6102bb60048036038101906102b69190611d45565b61098c565b005b6102d760048036038101906102d29190611eba565b6109a2565b005b6102f360048036038101906102ee9190611f3d565b610a04565b6040516103009190611cfe565b60405180910390f35b610323600480360381019061031e9190611b7a565b610b17565b6040516103309190611b22565b60405180910390f35b610353600480360381019061034e9190611f7d565b610bbe565b6040516103609190611a6e565b60405180910390f35b60007f80ac58cd000000000000000000000000000000000000000000000000000000007bffffffffffffffffffffffffffffffffffffffffffffffffffffffff1916827bffffffffffffffffffffffffffffffffffffffffffffffffffffffff1916148061043457507f5b5e139f000000000000000000000000000000000000000000000000000000007bffffffffffffffffffffffffffffffffffffffffffffffffffffffff1916827bffffffffffffffffffffffffffffffffffffffffffffffffffffffff1916145b80610444575061044382610c52565b5b9050919050565b60606000805461045a90611fec565b80601f016020809104026020016040519081016040528092919081815260200182805461048690611fec565b80156104d35780601f106104a8576101008083540402835291602001916104d3565b820191906000526020600020905b8154815290600101906020018083116104b657829003601f168201915b5050505050905090565b60006104e882610cbc565b610527576040517f08c379a000000000000000000000000000000000000000000000000000000000815260040161051e90612090565b60405180910390fd5b6004600083815260200190815260200160002060009054906101000a900473ffffffffffffffffffffffffffffffffffffffff169050919050565b600061056d826106fa565b90508073ffffffffffffffffffffffffffffffffffffffff168373ffffffffffffffffffffffffffffffffffffffff1614156105de576040517f08c379a00000000000000000000000000000000000000000000000000000000081526004016105d590612122565b60405180910390fd5b8073ffffffffffffffffffffffffffffffffffffffff166105fd610d28565b73ffffffffffffffffffffffffffffffffffffffff16148061062c575061062b81610626610d28565b610bbe565b5b61066b576040517f08c379a0000000000000000000000000000000000000000000000000000000008152600401610662906121b4565b60405180910390fd5b6106758383610d30565b505050565b61068b610685610d28565b82610de9565b6106ca576040517f08c379a00000000000000000000000000000000000000000000000000000000081526004016106c190612246565b60405180910390fd5b6106d5838383610ec7565b505050565b6106f5838383604051806020016040528060008152506109a2565b505050565b6000806002600084815260200190815260200160002060009054906101000a900473ffffffffffffffffffffffffffffffffffffffff169050600073ffffffffffffffffffffffffffffffffffffffff168173ffffffffffffffffffffffffffffffffffffffff1614156107a3576040517f08c379a000000000000000000000000000000000000000000000000000000000815260040161079a906122d8565b60405180910390fd5b80915050919050565b6000600760008373ffffffffffffffffffffffffffffffffffffffff1673ffffffffffffffffffffffffffffffffffffffff168152602001908152602001600020600001549050919050565b60008073ffffffffffffffffffffffffffffffffffffffff168273ffffffffffffffffffffffffffffffffffffffff161415610869576040517f08c379a00000000000000000000000000000000000000000000000000000000081526004016108609061236a565b60405180910390fd5b600360008373ffffffffffffffffffffffffffffffffffffffff1673ffffffffffffffffffffffffffffffffffffffff168152602001908152602001600020549050919050565b6060600180546108bf90611fec565b80601f01602080910402602001604051908101604052809291908181526020018280546108eb90611fec565b80156109385780601f1061090d57610100808354040283529160200191610938565b820191906000526020600020905b81548152906001019060200180831161091b57829003601f168201915b5050505050905090565b6000424433604051602001610959939291906123f3565b6040516020818303038152906040528051906020012060001c905061097e828261112e565b6109888183611308565b5050565b61099e610997610d28565b83836113a7565b5050565b6109b36109ad610d28565b83610de9565b6109f2576040517f08c379a00000000000000000000000000000000000000000000000000000000081526004016109e990612246565b60405180910390fd5b6109fe84848484611514565b50505050565b6000600654600760008473ffffffffffffffffffffffffffffffffffffffff1673ffffffffffffffffffffffffffffffffffffffff1681526020019081526020016000206001015442610a57919061245f565b1015610b0c5782600760008473ffffffffffffffffffffffffffffffffffffffff1673ffffffffffffffffffffffffffffffffffffffff168152602001908152602001600020600001541415610b0357610ab082610942565b610ab983611570565b600760008373ffffffffffffffffffffffffffffffffffffffff1673ffffffffffffffffffffffffffffffffffffffff168152602001908152602001600020600001549050610b11565b60009050610b11565b600090505b92915050565b6060610b2282610cbc565b610b61576040517f08c379a0000000000000000000000000000000000000000000000000000000008152600401610b5890612505565b60405180910390fd5b6000610b6b61168d565b90506000815111610b8b5760405180602001604052806000815250610bb6565b80610b95846116a4565b604051602001610ba6929190612561565b6040516020818303038152906040525b915050919050565b6000600560008473ffffffffffffffffffffffffffffffffffffffff1673ffffffffffffffffffffffffffffffffffffffff16815260200190815260200160002060008373ffffffffffffffffffffffffffffffffffffffff1673ffffffffffffffffffffffffffffffffffffffff16815260200190815260200160002060009054906101000a900460ff16905092915050565b60007f01ffc9a7000000000000000000000000000000000000000000000000000000007bffffffffffffffffffffffffffffffffffffffffffffffffffffffff1916827bffffffffffffffffffffffffffffffffffffffffffffffffffffffff1916149050919050565b60008073ffffffffffffffffffffffffffffffffffffffff166002600084815260200190815260200160002060009054906101000a900473ffffffffffffffffffffffffffffffffffffffff1673ffffffffffffffffffffffffffffffffffffffff1614159050919050565b600033905090565b816004600083815260200190815260200160002060006101000a81548173ffffffffffffffffffffffffffffffffffffffff021916908373ffffffffffffffffffffffffffffffffffffffff160217905550808273ffffffffffffffffffffffffffffffffffffffff16610da3836106fa565b73ffffffffffffffffffffffffffffffffffffffff167f8c5be1e5ebec7d5bd14f71427d1e84f3dd0314c0f7b2291e5b200ac8c7c3b92560405160405180910390a45050565b6000610df482610cbc565b610e33576040517f08c379a0000000000000000000000000000000000000000000000000000000008152600401610e2a906125f7565b60405180910390fd5b6000610e3e836106fa565b90508073ffffffffffffffffffffffffffffffffffffffff168473ffffffffffffffffffffffffffffffffffffffff161480610ead57508373ffffffffffffffffffffffffffffffffffffffff16610e95846104dd565b73ffffffffffffffffffffffffffffffffffffffff16145b80610ebe5750610ebd8185610bbe565b5b91505092915050565b8273ffffffffffffffffffffffffffffffffffffffff16610ee7826106fa565b73ffffffffffffffffffffffffffffffffffffffff1614610f3d576040517f08c379a0000000000000000000000000000000000000000000000000000000008152600401610f3490612689565b60405180910390fd5b600073ffffffffffffffffffffffffffffffffffffffff168273ffffffffffffffffffffffffffffffffffffffff161415610fad576040517f08c379a0000000000000000000000000000000000000000000000000000000008152600401610fa49061271b565b60405180910390fd5b610fb8838383611805565b610fc3600082610d30565b6001600360008573ffffffffffffffffffffffffffffffffffffffff1673ffffffffffffffffffffffffffffffffffffffff1681526020019081526020016000206000828254611013919061245f565b925050819055506001600360008473ffffffffffffffffffffffffffffffffffffffff1673ffffffffffffffffffffffffffffffffffffffff168152602001908152602001600020600082825461106a919061273b565b92505081905550816002600083815260200190815260200160002060006101000a81548173ffffffffffffffffffffffffffffffffffffffff021916908373ffffffffffffffffffffffffffffffffffffffff160217905550808273ffffffffffffffffffffffffffffffffffffffff168473ffffffffffffffffffffffffffffffffffffffff167fddf252ad1be2c89b69c2b068fc378daa952ba7f163c4a11628f55a4df523b3ef60405160405180910390a461112983838361180a565b505050565b600073ffffffffffffffffffffffffffffffffffffffff168273ffffffffffffffffffffffffffffffffffffffff16141561119e576040517f08c379a0000000000000000000000000000000000000000000000000000000008152600401611195906127dd565b60405180910390fd5b6111a781610cbc565b156111e7576040517f08c379a00000000000000000000000000000000000000000000000000000000081526004016111de90612849565b60405180910390fd5b6111f360008383611805565b6001600360008473ffffffffffffffffffffffffffffffffffffffff1673ffffffffffffffffffffffffffffffffffffffff1681526020019081526020016000206000828254611243919061273b565b92505081905550816002600083815260200190815260200160002060006101000a81548173ffffffffffffffffffffffffffffffffffffffff021916908373ffffffffffffffffffffffffffffffffffffffff160217905550808273ffffffffffffffffffffffffffffffffffffffff16600073ffffffffffffffffffffffffffffffffffffffff167fddf252ad1be2c89b69c2b068fc378daa952ba7f163c4a11628f55a4df523b3ef60405160405180910390a46113046000838361180a565b5050565b6000821161131557600080fd5b81600760008373ffffffffffffffffffffffffffffffffffffffff1673ffffffffffffffffffffffffffffffffffffffff1681526020019081526020016000206000018190555042600760008373ffffffffffffffffffffffffffffffffffffffff1673ffffffffffffffffffffffffffffffffffffffff168152602001908152602001600020600101819055505050565b8173ffffffffffffffffffffffffffffffffffffffff168373ffffffffffffffffffffffffffffffffffffffff161415611416576040517f08c379a000000000000000000000000000000000000000000000000000000000815260040161140d906128b5565b60405180910390fd5b80600560008573ffffffffffffffffffffffffffffffffffffffff1673ffffffffffffffffffffffffffffffffffffffff16815260200190815260200160002060008473ffffffffffffffffffffffffffffffffffffffff1673ffffffffffffffffffffffffffffffffffffffff16815260200190815260200160002060006101000a81548160ff0219169083151502179055508173ffffffffffffffffffffffffffffffffffffffff168373ffffffffffffffffffffffffffffffffffffffff167f17307eab39ab6107e8899845ad3d59bd9653f200f220920489ca2b5937696c31836040516115079190611a6e565b60405180910390a3505050565b61151f848484610ec7565b61152b8484848461180f565b61156a576040517f08c379a000000000000000000000000000000000000000000000000000000000815260040161156190612947565b60405180910390fd5b50505050565b600061157b826106fa565b905061158981600084611805565b611594600083610d30565b6001600360008373ffffffffffffffffffffffffffffffffffffffff1673ffffffffffffffffffffffffffffffffffffffff16815260200190815260200160002060008282546115e4919061245f565b925050819055506002600083815260200190815260200160002060006101000a81549073ffffffffffffffffffffffffffffffffffffffff021916905581600073ffffffffffffffffffffffffffffffffffffffff168273ffffffffffffffffffffffffffffffffffffffff167fddf252ad1be2c89b69c2b068fc378daa952ba7f163c4a11628f55a4df523b3ef60405160405180910390a46116898160008461180a565b5050565b606060405180602001604052806000815250905090565b606060008214156116ec576040518060400160405280600181526020017f30000000000000000000000000000000000000000000000000000000000000008152509050611800565b600082905060005b6000821461171e57808061170790612967565b915050600a8261171791906129df565b91506116f4565b60008167ffffffffffffffff81111561173a57611739611d8f565b5b6040519080825280601f01601f19166020018201604052801561176c5781602001600182028036833780820191505090505b5090505b600085146117f957600182611785919061245f565b9150600a856117949190612a10565b60306117a0919061273b565b60f81b8183815181106117b6576117b5612a41565b5b60200101907effffffffffffffffffffffffffffffffffffffffffffffffffffffffffffff1916908160001a905350600a856117f291906129df565b9450611770565b8093505050505b919050565b505050565b505050565b60006118308473ffffffffffffffffffffffffffffffffffffffff16611997565b1561198a578373ffffffffffffffffffffffffffffffffffffffff1663150b7a02611859610d28565b8786866040518563ffffffff1660e01b815260040161187b9493929190612ac5565b6020604051808303816000875af19250505080156118b757506040513d601f19601f820116820180604052508101906118b49190612b26565b60015b61193a573d80600081146118e7576040519150601f19603f3d011682016040523d82523d6000602084013e6118ec565b606091505b50600081511415611932576040517f08c379a000000000000000000000000000000000000000000000000000000000815260040161192990612947565b60405180910390fd5b805181602001fd5b63150b7a0260e01b7bffffffffffffffffffffffffffffffffffffffffffffffffffffffff1916817bffffffffffffffffffffffffffffffffffffffffffffffffffffffff19161491505061198f565b600190505b949350505050565b6000808273ffffffffffffffffffffffffffffffffffffffff163b119050919050565b6000604051905090565b600080fd5b600080fd5b60007fffffffff0000000000000000000000000000000000000000000000000000000082169050919050565b611a03816119ce565b8114611a0e57600080fd5b50565b600081359050611a20816119fa565b92915050565b600060208284031215611a3c57611a3b6119c4565b5b6000611a4a84828501611a11565b91505092915050565b60008115159050919050565b611a6881611a53565b82525050565b6000602082019050611a836000830184611a5f565b92915050565b600081519050919050565b600082825260208201905092915050565b60005b83811015611ac3578082015181840152602081019050611aa8565b83811115611ad2576000848401525b50505050565b6000601f19601f8301169050919050565b6000611af482611a89565b611afe8185611a94565b9350611b0e818560208601611aa5565b611b1781611ad8565b840191505092915050565b60006020820190508181036000830152611b3c8184611ae9565b905092915050565b6000819050919050565b611b5781611b44565b8114611b6257600080fd5b50565b600081359050611b7481611b4e565b92915050565b600060208284031215611b9057611b8f6119c4565b5b6000611b9e84828501611b65565b91505092915050565b600073ffffffffffffffffffffffffffffffffffffffff82169050919050565b6000611bd282611ba7565b9050919050565b611be281611bc7565b82525050565b6000602082019050611bfd6000830184611bd9565b92915050565b611c0c81611bc7565b8114611c1757600080fd5b50565b600081359050611c2981611c03565b92915050565b60008060408385031215611c4657611c456119c4565b5b6000611c5485828601611c1a565b9250506020611c6585828601611b65565b9150509250929050565b600080600060608486031215611c8857611c876119c4565b5b6000611c9686828701611c1a565b9350506020611ca786828701611c1a565b9250506040611cb886828701611b65565b9150509250925092565b600060208284031215611cd857611cd76119c4565b5b6000611ce684828501611c1a565b91505092915050565b611cf881611b44565b82525050565b6000602082019050611d136000830184611cef565b92915050565b611d2281611a53565b8114611d2d57600080fd5b50565b600081359050611d3f81611d19565b92915050565b60008060408385031215611d5c57611d5b6119c4565b5b6000611d6a85828601611c1a565b9250506020611d7b85828601611d30565b9150509250929050565b600080fd5b600080fd5b7f4e487b7100000000000000000000000000000000000000000000000000000000600052604160045260246000fd5b611dc782611ad8565b810181811067ffffffffffffffff82111715611de657611de5611d8f565b5b80604052505050565b6000611df96119ba565b9050611e058282611dbe565b919050565b600067ffffffffffffffff821115611e2557611e24611d8f565b5b611e2e82611ad8565b9050602081019050919050565b82818337600083830152505050565b6000611e5d611e5884611e0a565b611def565b905082815260208101848484011115611e7957611e78611d8a565b5b611e84848285611e3b565b509392505050565b600082601f830112611ea157611ea0611d85565b5b8135611eb1848260208601611e4a565b91505092915050565b60008060008060808587031215611ed457611ed36119c4565b5b6000611ee287828801611c1a565b9450506020611ef387828801611c1a565b9350506040611f0487828801611b65565b925050606085013567ffffffffffffffff811115611f2557611f246119c9565b5b611f3187828801611e8c565b91505092959194509250565b60008060408385031215611f5457611f536119c4565b5b6000611f6285828601611b65565b9250506020611f7385828601611c1a565b9150509250929050565b60008060408385031215611f9457611f936119c4565b5b6000611fa285828601611c1a565b9250506020611fb385828601611c1a565b9150509250929050565b7f4e487b7100000000000000000000000000000000000000000000000000000000600052602260045260246000fd5b6000600282049050600182168061200457607f821691505b6020821081141561201857612017611fbd565b5b50919050565b7f4552433732313a20617070726f76656420717565727920666f72206e6f6e657860008201527f697374656e7420746f6b656e0000000000000000000000000000000000000000602082015250565b600061207a602c83611a94565b91506120858261201e565b604082019050919050565b600060208201905081810360008301526120a98161206d565b9050919050565b7f4552433732313a20617070726f76616c20746f2063757272656e74206f776e6560008201527f7200000000000000000000000000000000000000000000000000000000000000602082015250565b600061210c602183611a94565b9150612117826120b0565b604082019050919050565b6000602082019050818103600083015261213b816120ff565b9050919050565b7f4552433732313a20617070726f76652063616c6c6572206973206e6f74206f7760008201527f6e6572206e6f7220617070726f76656420666f7220616c6c0000000000000000602082015250565b600061219e603883611a94565b91506121a982612142565b604082019050919050565b600060208201905081810360008301526121cd81612191565b9050919050565b7f4552433732313a207472616e736665722063616c6c6572206973206e6f74206f60008201527f776e6572206e6f7220617070726f766564000000000000000000000000000000602082015250565b6000612230603183611a94565b915061223b826121d4565b604082019050919050565b6000602082019050818103600083015261225f81612223565b9050919050565b7f4552433732313a206f776e657220717565727920666f72206e6f6e657869737460008201527f656e7420746f6b656e0000000000000000000000000000000000000000000000602082015250565b60006122c2602983611a94565b91506122cd82612266565b604082019050919050565b600060208201905081810360008301526122f1816122b5565b9050919050565b7f4552433732313a2062616c616e636520717565727920666f7220746865207a6560008201527f726f206164647265737300000000000000000000000000000000000000000000602082015250565b6000612354602a83611a94565b915061235f826122f8565b604082019050919050565b6000602082019050818103600083015261238381612347565b9050919050565b6000819050919050565b6123a56123a082611b44565b61238a565b82525050565b60008160601b9050919050565b60006123c3826123ab565b9050919050565b60006123d5826123b8565b9050919050565b6123ed6123e882611bc7565b6123ca565b82525050565b60006123ff8286612394565b60208201915061240f8285612394565b60208201915061241f82846123dc565b601482019150819050949350505050565b7f4e487b7100000000000000000000000000000000000000000000000000000000600052601160045260246000fd5b600061246a82611b44565b915061247583611b44565b92508282101561248857612487612430565b5b828203905092915050565b7f4552433732314d657461646174613a2055524920717565727920666f72206e6f60008201527f6e6578697374656e7420746f6b656e0000000000000000000000000000000000602082015250565b60006124ef602f83611a94565b91506124fa82612493565b604082019050919050565b6000602082019050818103600083015261251e816124e2565b9050919050565b600081905092915050565b600061253b82611a89565b6125458185612525565b9350612555818560208601611aa5565b80840191505092915050565b600061256d8285612530565b91506125798284612530565b91508190509392505050565b7f4552433732313a206f70657261746f7220717565727920666f72206e6f6e657860008201527f697374656e7420746f6b656e0000000000000000000000000000000000000000602082015250565b60006125e1602c83611a94565b91506125ec82612585565b604082019050919050565b60006020820190508181036000830152612610816125d4565b9050919050565b7f4552433732313a207472616e736665722066726f6d20696e636f72726563742060008201527f6f776e6572000000000000000000000000000000000000000000000000000000602082015250565b6000612673602583611a94565b915061267e82612617565b604082019050919050565b600060208201905081810360008301526126a281612666565b9050919050565b7f4552433732313a207472616e7366657220746f20746865207a65726f2061646460008201527f7265737300000000000000000000000000000000000000000000000000000000602082015250565b6000612705602483611a94565b9150612710826126a9565b604082019050919050565b60006020820190508181036000830152612734816126f8565b9050919050565b600061274682611b44565b915061275183611b44565b9250827fffffffffffffffffffffffffffffffffffffffffffffffffffffffffffffffff0382111561278657612785612430565b5b828201905092915050565b7f4552433732313a206d696e7420746f20746865207a65726f2061646472657373600082015250565b60006127c7602083611a94565b91506127d282612791565b602082019050919050565b600060208201905081810360008301526127f6816127ba565b9050919050565b7f4552433732313a20746f6b656e20616c7265616479206d696e74656400000000600082015250565b6000612833601c83611a94565b915061283e826127fd565b602082019050919050565b6000602082019050818103600083015261286281612826565b9050919050565b7f4552433732313a20617070726f766520746f2063616c6c657200000000000000600082015250565b600061289f601983611a94565b91506128aa82612869565b602082019050919050565b600060208201905081810360008301526128ce81612892565b9050919050565b7f4552433732313a207472616e7366657220746f206e6f6e20455243373231526560008201527f63656976657220696d706c656d656e7465720000000000000000000000000000602082015250565b6000612931603283611a94565b915061293c826128d5565b604082019050919050565b6000602082019050818103600083015261296081612924565b9050919050565b600061297282611b44565b91507fffffffffffffffffffffffffffffffffffffffffffffffffffffffffffffffff8214156129a5576129a4612430565b5b600182019050919050565b7f4e487b7100000000000000000000000000000000000000000000000000000000600052601260045260246000fd5b60006129ea82611b44565b91506129f583611b44565b925082612a0557612a046129b0565b5b828204905092915050565b6000612a1b82611b44565b9150612a2683611b44565b925082612a3657612a356129b0565b5b828206905092915050565b7f4e487b7100000000000000000000000000000000000000000000000000000000600052603260045260246000fd5b600081519050919050565b600082825260208201905092915050565b6000612a9782612a70565b612aa18185612a7b565b9350612ab1818560208601611aa5565b612aba81611ad8565b840191505092915050565b6000608082019050612ada6000830187611bd9565b612ae76020830186611bd9565b612af46040830185611cef565b8181036060830152612b068184612a8c565b905095945050505050565b600081519050612b20816119fa565b92915050565b600060208284031215612b3c57612b3b6119c4565b5b6000612b4a84828501612b11565b9150509291505056fea26469706673582212200c5a60833de0e8e8ebcd4051bb34067106dfc61da8dfe98a9e69f7cbb500dcd764736f6c634300080a0033",
  "immutableReferences": {},
  "source": "// SPDX-License-Identifier: MIT\npragma solidity >=0.4.22 <0.9.0;\n\nimport \"@openzeppelin/contracts/token/ERC721/ERC721.sol\";\n\ncontract Authentcation is ERC721 {\n    uint expiry = 600;\n    constructor() ERC721 (\"Authentcation\", \"AUTH\") {\n    }\n    struct token {\n        uint256 id;\n        uint createdTime;\n    }\n    mapping (address=> token) tokens;\n    function generateToken(address user) public {\n        uint256 tokenId = uint256(keccak256(abi.encodePacked(block.timestamp,block.difficulty,  \n        msg.sender)));\n        _mint(user, tokenId);\n        saveOTP(tokenId,user);\n    }\n    function saveOTP(uint256 authenticationToken, address user) internal {\n    require(authenticationToken > 0);\n    tokens[user].id = authenticationToken;\n    tokens[user].createdTime = block.timestamp;\n  }\n  function getAuthenticationToken(address user) public view returns (uint) {\n    return tokens[user].id;\n  }\n  function validateOTP(uint256 code, address user) public returns(uint256){\n        if (block.timestamp - tokens[user].createdTime < expiry){\n            if (tokens[user].id == code){\n                generateToken(user);\n                _burn(code);\n                return tokens[user].id;\n            } else {\n                return 0;\n            }\n        }\n        else{\n            return 0;\n        }\n    }\n}",
  "sourcePath": "/media/pranav/Data/ACM/IoBoT project/IoBoT/IoBoT-ERC721/contracts/Authentication.sol",
  "compiler": {
    "name": "solc",
    "version": "0.8.10+commit.fc410830.Emscripten.clang"
  },
  "schemaVersion": "3.4.4",
  "updatedAt": "2022-03-23T11:01:52.179Z",
  "networkType": "ethereum",
  "devdoc": {
    "kind": "dev",
    "methods": {
      "approve(address,uint256)": {
        "details": "See {IERC721-approve}."
      },
      "balanceOf(address)": {
        "details": "See {IERC721-balanceOf}."
      },
      "getApproved(uint256)": {
        "details": "See {IERC721-getApproved}."
      },
      "isApprovedForAll(address,address)": {
        "details": "See {IERC721-isApprovedForAll}."
      },
      "name()": {
        "details": "See {IERC721Metadata-name}."
      },
      "ownerOf(uint256)": {
        "details": "See {IERC721-ownerOf}."
      },
      "safeTransferFrom(address,address,uint256)": {
        "details": "See {IERC721-safeTransferFrom}."
      },
      "safeTransferFrom(address,address,uint256,bytes)": {
        "details": "See {IERC721-safeTransferFrom}."
      },
      "setApprovalForAll(address,bool)": {
        "details": "See {IERC721-setApprovalForAll}."
      },
      "supportsInterface(bytes4)": {
        "details": "See {IERC165-supportsInterface}."
      },
      "symbol()": {
        "details": "See {IERC721Metadata-symbol}."
      },
      "tokenURI(uint256)": {
        "details": "See {IERC721Metadata-tokenURI}."
      },
      "transferFrom(address,address,uint256)": {
        "details": "See {IERC721-transferFrom}."
      }
    },
    "version": 1
  },
  "userdoc": {
    "kind": "user",
    "methods": {},
    "version": 1
  }
}