{
  "contractName": "auth2",
  "abi": [
    {
      "inputs": [],
      "stateMutability": "nonpayable",
      "type": "constructor"
    },
    {
      "inputs": [
        {
          "internalType": "string",
          "name": "user",
          "type": "string"
        },
        {
          "internalType": "uint256",
          "name": "time",
          "type": "uint256"
        }
      ],
      "name": "generateOTP",
      "outputs": [],
      "stateMutability": "nonpayable",
      "type": "function"
    },
    {
      "inputs": [
        {
          "internalType": "string",
          "name": "user",
          "type": "string"
        }
      ],
      "name": "getAuthenticationToken",
      "outputs": [
        {
          "internalType": "uint256",
          "name": "",
          "type": "uint256"
        }
      ],
      "stateMutability": "view",
      "type": "function"
    },
    {
      "inputs": [
        {
          "internalType": "string",
          "name": "user",
          "type": "string"
        }
      ],
      "name": "getTime",
      "outputs": [
        {
          "internalType": "uint256",
          "name": "",
          "type": "uint256"
        }
      ],
      "stateMutability": "view",
      "type": "function"
    },
    {
      "inputs": [
        {
          "internalType": "uint256",
          "name": "code",
          "type": "uint256"
        },
        {
          "internalType": "string",
          "name": "user",
          "type": "string"
        },
        {
          "internalType": "uint256",
          "name": "time",
          "type": "uint256"
        }
      ],
      "name": "validateOTP",
      "outputs": [
        {
          "internalType": "bool",
          "name": "",
          "type": "bool"
        }
      ],
      "stateMutability": "view",
      "type": "function"
    }
  ],
  "bytecode": "0x608060405234801561001057600080fd5b50336000806101000a81548173ffffffffffffffffffffffffffffffffffffffff021916908373ffffffffffffffffffffffffffffffffffffffff160217905550610838806100606000396000f3fe608060405234801561001057600080fd5b506004361061004c5760003560e01c80635205c33e146100515780638d231ca714610081578063b359cedd146100b1578063dd13bb75146100e1575b600080fd5b61006b60048036038101906100669190610462565b6100fd565b60405161007891906104ec565b60405180910390f35b61009b60048036038101906100969190610507565b61016b565b6040516100a8919061055f565b60405180910390f35b6100cb60048036038101906100c69190610507565b610196565b6040516100d8919061055f565b60405180910390f35b6100fb60048036038101906100f6919061057a565b6101cc565b005b6000603c6001846040516101119190610650565b9081526020016040518091039020600101548361012e9190610696565b101561015f57836001846040516101459190610650565b908152602001604051809103902060000154149050610164565b600090505b9392505050565b600060018260405161017d9190610650565b9081526020016040518091039020600001549050919050565b60006001826040516101a89190610650565b908152602001604051809103902060010154426101c59190610696565b9050919050565b60008054906101000a900473ffffffffffffffffffffffffffffffffffffffff1673ffffffffffffffffffffffffffffffffffffffff163373ffffffffffffffffffffffffffffffffffffffff161461022457600080fd5b6000620f424082443360405160200161023f93929190610765565b6040516020818303038152906040528051906020012060001c61026291906107d1565b905061026f818484610274565b505050565b6000831161028157600080fd5b826001836040516102929190610650565b908152602001604051809103902060000181905550806001836040516102b89190610650565b908152602001604051809103902060010181905550505050565b6000604051905090565b600080fd5b600080fd5b6000819050919050565b6102f9816102e6565b811461030457600080fd5b50565b600081359050610316816102f0565b92915050565b600080fd5b600080fd5b6000601f19601f8301169050919050565b7f4e487b7100000000000000000000000000000000000000000000000000000000600052604160045260246000fd5b61036f82610326565b810181811067ffffffffffffffff8211171561038e5761038d610337565b5b80604052505050565b60006103a16102d2565b90506103ad8282610366565b919050565b600067ffffffffffffffff8211156103cd576103cc610337565b5b6103d682610326565b9050602081019050919050565b82818337600083830152505050565b6000610405610400846103b2565b610397565b90508281526020810184848401111561042157610420610321565b5b61042c8482856103e3565b509392505050565b600082601f8301126104495761044861031c565b5b81356104598482602086016103f2565b91505092915050565b60008060006060848603121561047b5761047a6102dc565b5b600061048986828701610307565b935050602084013567ffffffffffffffff8111156104aa576104a96102e1565b5b6104b686828701610434565b92505060406104c786828701610307565b9150509250925092565b60008115159050919050565b6104e6816104d1565b82525050565b600060208201905061050160008301846104dd565b92915050565b60006020828403121561051d5761051c6102dc565b5b600082013567ffffffffffffffff81111561053b5761053a6102e1565b5b61054784828501610434565b91505092915050565b610559816102e6565b82525050565b60006020820190506105746000830184610550565b92915050565b60008060408385031215610591576105906102dc565b5b600083013567ffffffffffffffff8111156105af576105ae6102e1565b5b6105bb85828601610434565b92505060206105cc85828601610307565b9150509250929050565b600081519050919050565b600081905092915050565b60005b8381101561060a5780820151818401526020810190506105ef565b83811115610619576000848401525b50505050565b600061062a826105d6565b61063481856105e1565b93506106448185602086016105ec565b80840191505092915050565b600061065c828461061f565b915081905092915050565b7f4e487b7100000000000000000000000000000000000000000000000000000000600052601160045260246000fd5b60006106a1826102e6565b91506106ac836102e6565b9250828210156106bf576106be610667565b5b828203905092915050565b6000819050919050565b6106e56106e0826102e6565b6106ca565b82525050565b600073ffffffffffffffffffffffffffffffffffffffff82169050919050565b6000610716826106eb565b9050919050565b60008160601b9050919050565b60006107358261071d565b9050919050565b60006107478261072a565b9050919050565b61075f61075a8261070b565b61073c565b82525050565b600061077182866106d4565b60208201915061078182856106d4565b602082019150610791828461074e565b601482019150819050949350505050565b7f4e487b7100000000000000000000000000000000000000000000000000000000600052601260045260246000fd5b60006107dc826102e6565b91506107e7836102e6565b9250826107f7576107f66107a2565b5b82820690509291505056fea26469706673582212200e9d76e5178dc387f66080201b308581bcffcf88bf992c2bc8c9523374b96d1b64736f6c634300080a0033",
  "immutableReferences": {},
  "source": "// SPDX-License-Identifier: UNLICENSED\npragma solidity >=0.4.22 <0.9.0;\n\ncontract auth2 {\n    address owner;\n    // uint expiry = 60;\n    mapping (string=> Otp) otps;\n\n    struct Otp {\n        uint otpCode;\n        uint createdTime;\n    }\n\n    constructor(){\n        owner = msg.sender;\n    }\n\n    modifier ownerOnly {\n        require(msg.sender==owner);\n        _;\n    }\n\n    // event OtpCreated(string indexed _owner, uint indexed _otpCode, uint _createdTime);\n    // event OtpSent(string indexed _owner, uint indexed _otpCode);\n    // event OtpExpired(string indexed _owner, uint indexed _otpCode, uint _expiredTime);\n    // event OtpValidated(string indexed _owner, uint indexed _otpCode, uint _revokedTime);\n\n    function generateOTP(string memory user, uint time) public ownerOnly{\n        uint otp = uint(keccak256(abi.encodePacked(time,block.difficulty,  \n        msg.sender))) % 1000000;\n        saveOTP(otp,user,time);\n    }\n\n    function saveOTP(uint authenticationToken, string memory user, uint time) internal {\n    require(authenticationToken > 0);\n    otps[user].otpCode = authenticationToken;\n    otps[user].createdTime = time;\n    // emit OtpCreated(user, authenticationToken, time);\n  }\n\n  function getAuthenticationToken(string memory user) public view returns (uint) {\n    //   emit OtpSent(user, otps[user].otpCode);\n    return otps[user].otpCode;\n  }\n\n  function getTime(string memory user) public view returns (uint) {\n      return block.timestamp - otps[user].createdTime;\n  }\n\n    function validateOTP(uint code, string memory user, uint time) public view returns(bool){\n        if (time - otps[user].createdTime < 60) {\n            // emit OtpValidated(user, otps[user].otpCode, time);\n            return otps[user].otpCode == code;\n        }\n        else{\n            // emit OtpExpired(user, otps[user].otpCode, time);\n            return false;\n        }\n    }\n}",
  "sourcePath": "/media/pranav/Data/ACM/IoBoT project/IoBoT/IoBoT-OTP/contracts/newauth.sol",
  "compiler": {
    "name": "solc",
    "version": "0.8.10+commit.fc410830.Emscripten.clang"
  },
  "schemaVersion": "3.4.4",
  "updatedAt": "2022-04-05T13:24:40.615Z",
  "devdoc": {
    "kind": "dev",
    "methods": {},
    "version": 1
  },
  "userdoc": {
    "kind": "user",
    "methods": {},
    "version": 1
  }
}