{
  "contractName": "auth",
  "abi": [
    {
      "inputs": [],
      "stateMutability": "nonpayable",
      "type": "constructor"
    },
    {
      "anonymous": false,
      "inputs": [
        {
          "indexed": true,
          "internalType": "address",
          "name": "_owner",
          "type": "address"
        },
        {
          "indexed": true,
          "internalType": "uint256",
          "name": "_otpCode",
          "type": "uint256"
        },
        {
          "indexed": false,
          "internalType": "uint256",
          "name": "_createdTime",
          "type": "uint256"
        }
      ],
      "name": "OtpCreated",
      "type": "event"
    },
    {
      "anonymous": false,
      "inputs": [
        {
          "indexed": true,
          "internalType": "address",
          "name": "_owner",
          "type": "address"
        },
        {
          "indexed": true,
          "internalType": "uint256",
          "name": "_otpCode",
          "type": "uint256"
        },
        {
          "indexed": false,
          "internalType": "uint256",
          "name": "_expiredTime",
          "type": "uint256"
        }
      ],
      "name": "OtpExpired",
      "type": "event"
    },
    {
      "anonymous": false,
      "inputs": [
        {
          "indexed": true,
          "internalType": "address",
          "name": "_owner",
          "type": "address"
        },
        {
          "indexed": true,
          "internalType": "uint256",
          "name": "_otpCode",
          "type": "uint256"
        },
        {
          "indexed": false,
          "internalType": "uint256",
          "name": "_usedTime",
          "type": "uint256"
        }
      ],
      "name": "OtpSent",
      "type": "event"
    },
    {
      "anonymous": false,
      "inputs": [
        {
          "indexed": true,
          "internalType": "address",
          "name": "_owner",
          "type": "address"
        },
        {
          "indexed": true,
          "internalType": "uint256",
          "name": "_otpCode",
          "type": "uint256"
        },
        {
          "indexed": false,
          "internalType": "uint256",
          "name": "_revokedTime",
          "type": "uint256"
        }
      ],
      "name": "OtpValidated",
      "type": "event"
    },
    {
      "inputs": [
        {
          "internalType": "address",
          "name": "user",
          "type": "address"
        }
      ],
      "name": "generateOTP",
      "outputs": [],
      "stateMutability": "nonpayable",
      "type": "function"
    },
    {
      "inputs": [
        {
          "internalType": "address",
          "name": "user",
          "type": "address"
        }
      ],
      "name": "getAuthenticationToken",
      "outputs": [
        {
          "internalType": "uint256",
          "name": "",
          "type": "uint256"
        }
      ],
      "stateMutability": "nonpayable",
      "type": "function"
    },
    {
      "inputs": [
        {
          "internalType": "address",
          "name": "user",
          "type": "address"
        }
      ],
      "name": "getTime",
      "outputs": [
        {
          "internalType": "uint256",
          "name": "",
          "type": "uint256"
        }
      ],
      "stateMutability": "view",
      "type": "function"
    },
    {
      "inputs": [
        {
          "internalType": "uint256",
          "name": "code",
          "type": "uint256"
        },
        {
          "internalType": "address",
          "name": "user",
          "type": "address"
        }
      ],
      "name": "validateOTP",
      "outputs": [
        {
          "internalType": "bool",
          "name": "",
          "type": "bool"
        }
      ],
      "stateMutability": "nonpayable",
      "type": "function"
    }
  ],
  "bytecode": "0x608060405234801561001057600080fd5b50336000806101000a81548173ffffffffffffffffffffffffffffffffffffffff021916908373ffffffffffffffffffffffffffffffffffffffff16021790555061089b806100606000396000f3fe608060405234801561001057600080fd5b506004361061004c5760003560e01c80633b4abc32146100515780634b70cec41461006d5780636d7482071461009d578063c7c48bc6146100cd575b600080fd5b61006b600480360381019061006691906105f9565b6100fd565b005b610087600480360381019061008291906105f9565b6101a3565b604051610094919061063f565b60405180910390f35b6100b760048036038101906100b291906105f9565b6101fa565b6040516100c4919061063f565b60405180910390f35b6100e760048036038101906100e29190610686565b6102d7565b6040516100f491906106e1565b60405180910390f35b60008054906101000a900473ffffffffffffffffffffffffffffffffffffffff1673ffffffffffffffffffffffffffffffffffffffff163373ffffffffffffffffffffffffffffffffffffffff161461015557600080fd5b6000620f424042443360405160200161017093929190610765565b6040516020818303038152906040528051906020012060001c61019391906107d1565b905061019f81836104a8565b5050565b6000600160008373ffffffffffffffffffffffffffffffffffffffff1673ffffffffffffffffffffffffffffffffffffffff16815260200190815260200160002060010154426101f39190610831565b9050919050565b6000600160008373ffffffffffffffffffffffffffffffffffffffff1673ffffffffffffffffffffffffffffffffffffffff168152602001908152602001600020600001543373ffffffffffffffffffffffffffffffffffffffff167fb9a65bd394d6eb117123605036c11bcb2cf5298417e3e3e338834b173eaed70b42604051610285919061063f565b60405180910390a3600160008373ffffffffffffffffffffffffffffffffffffffff1673ffffffffffffffffffffffffffffffffffffffff168152602001908152602001600020600001549050919050565b6000603c600160008473ffffffffffffffffffffffffffffffffffffffff1673ffffffffffffffffffffffffffffffffffffffff16815260200190815260200160002060010154426103299190610831565b101561040c57600160008373ffffffffffffffffffffffffffffffffffffffff1673ffffffffffffffffffffffffffffffffffffffff168152602001908152602001600020600001543373ffffffffffffffffffffffffffffffffffffffff167fc4ca5dea46638c7a29bb80375fd858f13be3d792a65c84a081685200f5d70ebd426040516103b8919061063f565b60405180910390a382600160008473ffffffffffffffffffffffffffffffffffffffff1673ffffffffffffffffffffffffffffffffffffffff168152602001908152602001600020600001541490506104a2565b600160008373ffffffffffffffffffffffffffffffffffffffff1673ffffffffffffffffffffffffffffffffffffffff168152602001908152602001600020600001543373ffffffffffffffffffffffffffffffffffffffff167fc2ac434ccbf4c9070bcc07313e58bcecb24c268b3e80b72ca3814abeaa0bb2c842604051610495919061063f565b60405180910390a3600090505b92915050565b600082116104b557600080fd5b81600160008373ffffffffffffffffffffffffffffffffffffffff1673ffffffffffffffffffffffffffffffffffffffff1681526020019081526020016000206000018190555042600160008373ffffffffffffffffffffffffffffffffffffffff1673ffffffffffffffffffffffffffffffffffffffff16815260200190815260200160002060010181905550813373ffffffffffffffffffffffffffffffffffffffff167f9a697258c4edf1e1e8b7378eb2aca797980cc3e24e81a44f0025cb9af2bbb2844260405161058a919061063f565b60405180910390a35050565b600080fd5b600073ffffffffffffffffffffffffffffffffffffffff82169050919050565b60006105c68261059b565b9050919050565b6105d6816105bb565b81146105e157600080fd5b50565b6000813590506105f3816105cd565b92915050565b60006020828403121561060f5761060e610596565b5b600061061d848285016105e4565b91505092915050565b6000819050919050565b61063981610626565b82525050565b60006020820190506106546000830184610630565b92915050565b61066381610626565b811461066e57600080fd5b50565b6000813590506106808161065a565b92915050565b6000806040838503121561069d5761069c610596565b5b60006106ab85828601610671565b92505060206106bc858286016105e4565b9150509250929050565b60008115159050919050565b6106db816106c6565b82525050565b60006020820190506106f660008301846106d2565b92915050565b6000819050919050565b61071761071282610626565b6106fc565b82525050565b60008160601b9050919050565b60006107358261071d565b9050919050565b60006107478261072a565b9050919050565b61075f61075a826105bb565b61073c565b82525050565b60006107718286610706565b6020820191506107818285610706565b602082019150610791828461074e565b601482019150819050949350505050565b7f4e487b7100000000000000000000000000000000000000000000000000000000600052601260045260246000fd5b60006107dc82610626565b91506107e783610626565b9250826107f7576107f66107a2565b5b828206905092915050565b7f4e487b7100000000000000000000000000000000000000000000000000000000600052601160045260246000fd5b600061083c82610626565b915061084783610626565b92508282101561085a57610859610802565b5b82820390509291505056fea2646970667358221220cae3541e76f4bd77d6fee1d9bde9d6337dba4cdb13f8b44983304a358545172264736f6c634300080a0033",
  "immutableReferences": {},
  "source": "// SPDX-License-Identifier: UNLICENSED\npragma solidity >=0.4.22 <0.9.0;\n\ncontract auth {\n    address owner;\n    // uint expiry = 60;\n    mapping (address=> Otp) otps;\n\n    struct Otp {\n        uint otpCode;\n        uint createdTime;\n    }\n\n    constructor(){\n        owner = msg.sender;\n    }\n\n    modifier ownerOnly {\n        require(msg.sender==owner);\n        _;\n    }\n\n    event OtpCreated(address indexed _owner, uint indexed _otpCode, uint _createdTime);\n    event OtpSent(address indexed _owner, uint indexed _otpCode, uint _usedTime);\n    event OtpExpired(address indexed _owner, uint indexed _otpCode, uint _expiredTime);\n    event OtpValidated(address indexed _owner, uint indexed _otpCode, uint _revokedTime);\n\n    function generateOTP(address user) public ownerOnly{\n        uint otp = uint(keccak256(abi.encodePacked(block.timestamp,block.difficulty,  \n        msg.sender))) % 1000000;\n        saveOTP(otp,user);\n    }\n\n    function saveOTP(uint authenticationToken, address user) internal {\n    require(authenticationToken > 0);\n    otps[user].otpCode = authenticationToken;\n    otps[user].createdTime = block.timestamp;\n    emit OtpCreated(msg.sender, authenticationToken, block.timestamp);\n  }\n\n  function getAuthenticationToken(address user) public returns (uint) {\n      emit OtpSent(msg.sender, otps[user].otpCode, block.timestamp);\n    return otps[user].otpCode;\n  }\n\n  function getTime(address user) public view returns (uint) {\n      return block.timestamp - otps[user].createdTime;\n  }\n\n    function validateOTP(uint code, address user) public returns(bool){\n        if (block.timestamp - otps[user].createdTime < 1 minutes) {\n            emit OtpValidated(msg.sender, otps[user].otpCode, block.timestamp);\n            return otps[user].otpCode == code;\n        }\n        else{\n            emit OtpExpired(msg.sender, otps[user].otpCode, block.timestamp);\n            return false;\n        }\n    }\n}",
  "sourcePath": "/media/pranav/Data/ACM/IoBoT project/IoBoT/IoBoT-OTP/contracts/authentication.sol",
  "compiler": {
    "name": "solc",
    "version": "0.8.10+commit.fc410830.Emscripten.clang"
  },
  "schemaVersion": "3.4.4",
  "updatedAt": "2022-04-02T07:40:29.803Z",
  "devdoc": {
    "kind": "dev",
    "methods": {},
    "version": 1
  },
  "userdoc": {
    "kind": "user",
    "methods": {},
    "version": 1
  }
}