{
  "contractName": "auth2",
  "abi": [
    {
      "inputs": [],
      "stateMutability": "nonpayable",
      "type": "constructor"
    },
    {
      "anonymous": false,
      "inputs": [
        {
          "indexed": true,
          "internalType": "string",
          "name": "_owner",
          "type": "string"
        },
        {
          "indexed": true,
          "internalType": "uint256",
          "name": "_otpCode",
          "type": "uint256"
        },
        {
          "indexed": false,
          "internalType": "uint256",
          "name": "_createdTime",
          "type": "uint256"
        }
      ],
      "name": "OtpCreated",
      "type": "event"
    },
    {
      "anonymous": false,
      "inputs": [
        {
          "indexed": true,
          "internalType": "string",
          "name": "_owner",
          "type": "string"
        },
        {
          "indexed": true,
          "internalType": "uint256",
          "name": "_otpCode",
          "type": "uint256"
        },
        {
          "indexed": false,
          "internalType": "uint256",
          "name": "_expiredTime",
          "type": "uint256"
        }
      ],
      "name": "OtpExpired",
      "type": "event"
    },
    {
      "anonymous": false,
      "inputs": [
        {
          "indexed": true,
          "internalType": "string",
          "name": "_owner",
          "type": "string"
        },
        {
          "indexed": true,
          "internalType": "uint256",
          "name": "_otpCode",
          "type": "uint256"
        }
      ],
      "name": "OtpSent",
      "type": "event"
    },
    {
      "anonymous": false,
      "inputs": [
        {
          "indexed": true,
          "internalType": "string",
          "name": "_owner",
          "type": "string"
        },
        {
          "indexed": true,
          "internalType": "uint256",
          "name": "_otpCode",
          "type": "uint256"
        },
        {
          "indexed": false,
          "internalType": "uint256",
          "name": "_revokedTime",
          "type": "uint256"
        }
      ],
      "name": "OtpValidated",
      "type": "event"
    },
    {
      "inputs": [
        {
          "internalType": "string",
          "name": "user",
          "type": "string"
        },
        {
          "internalType": "uint256",
          "name": "time",
          "type": "uint256"
        }
      ],
      "name": "generateOTP",
      "outputs": [],
      "stateMutability": "nonpayable",
      "type": "function"
    },
    {
      "inputs": [
        {
          "internalType": "string",
          "name": "user",
          "type": "string"
        }
      ],
      "name": "getAuthenticationToken",
      "outputs": [
        {
          "internalType": "uint256",
          "name": "",
          "type": "uint256"
        }
      ],
      "stateMutability": "nonpayable",
      "type": "function"
    },
    {
      "inputs": [
        {
          "internalType": "string",
          "name": "user",
          "type": "string"
        }
      ],
      "name": "getTime",
      "outputs": [
        {
          "internalType": "uint256",
          "name": "",
          "type": "uint256"
        }
      ],
      "stateMutability": "view",
      "type": "function",
      "constant": true
    },
    {
      "inputs": [
        {
          "internalType": "uint256",
          "name": "code",
          "type": "uint256"
        },
        {
          "internalType": "string",
          "name": "user",
          "type": "string"
        },
        {
          "internalType": "uint256",
          "name": "time",
          "type": "uint256"
        }
      ],
      "name": "validateOTP",
      "outputs": [
        {
          "internalType": "bool",
          "name": "",
          "type": "bool"
        }
      ],
      "stateMutability": "nonpayable",
      "type": "function"
    }
  ],
  "bytecode": "0x608060405234801561001057600080fd5b50336000806101000a81548173ffffffffffffffffffffffffffffffffffffffff021916908373ffffffffffffffffffffffffffffffffffffffff1602179055506109c9806100606000396000f3fe608060405234801561001057600080fd5b506004361061004c5760003560e01c80635205c33e146100515780638d231ca714610081578063b359cedd146100b1578063dd13bb75146100e1575b600080fd5b61006b600480360381019061006691906105f3565b6100fd565b604051610078919061067d565b60405180910390f35b61009b60048036038101906100969190610698565b61024a565b6040516100a891906106f0565b60405180910390f35b6100cb60048036038101906100c69190610698565b6102d9565b6040516100d891906106f0565b60405180910390f35b6100fb60048036038101906100f6919061070b565b61030f565b005b600061ea6060018460405161011291906107e1565b9081526020016040518091039020600101548361012f9190610827565b10156101cf5760018360405161014591906107e1565b9081526020016040518091039020600001548360405161016591906107e1565b60405180910390207fc87b271532d2b48843e70d989fff278d80d657d054018dcd601a026cb0a8be3a8460405161019c91906106f0565b60405180910390a3836001846040516101b591906107e1565b908152602001604051809103902060000154149050610243565b6001836040516101df91906107e1565b908152602001604051809103902060000154836040516101ff91906107e1565b60405180910390207f82bd0e70fda582e03dfb454b0af4d069c016a7405d9b0aad53011a143e9cadfd8460405161023691906106f0565b60405180910390a3600090505b9392505050565b600060018260405161025c91906107e1565b9081526020016040518091039020600001548260405161027c91906107e1565b60405180910390207f8be9ce69f0b81d8bcc97228a2875c43f16b0d3daf5a53a976c6fede45a90b9dd60405160405180910390a36001826040516102c091906107e1565b9081526020016040518091039020600001549050919050565b60006001826040516102eb91906107e1565b908152602001604051809103902060010154426103089190610827565b9050919050565b60008054906101000a900473ffffffffffffffffffffffffffffffffffffffff1673ffffffffffffffffffffffffffffffffffffffff163373ffffffffffffffffffffffffffffffffffffffff161461036757600080fd5b6000620f4240824433604051602001610382939291906108f6565b6040516020818303038152906040528051906020012060001c6103a59190610962565b90506103b28184846103b7565b505050565b600083116103c457600080fd5b826001836040516103d591906107e1565b908152602001604051809103902060000181905550806001836040516103fb91906107e1565b908152602001604051809103902060010181905550828260405161041f91906107e1565b60405180910390207fe513b9144fd7dd2d93db5d385b125d0b3a86df9512f0e8ccad50133fab9e0ebb8360405161045691906106f0565b60405180910390a3505050565b6000604051905090565b600080fd5b600080fd5b6000819050919050565b61048a81610477565b811461049557600080fd5b50565b6000813590506104a781610481565b92915050565b600080fd5b600080fd5b6000601f19601f8301169050919050565b7f4e487b7100000000000000000000000000000000000000000000000000000000600052604160045260246000fd5b610500826104b7565b810181811067ffffffffffffffff8211171561051f5761051e6104c8565b5b80604052505050565b6000610532610463565b905061053e82826104f7565b919050565b600067ffffffffffffffff82111561055e5761055d6104c8565b5b610567826104b7565b9050602081019050919050565b82818337600083830152505050565b600061059661059184610543565b610528565b9050828152602081018484840111156105b2576105b16104b2565b5b6105bd848285610574565b509392505050565b600082601f8301126105da576105d96104ad565b5b81356105ea848260208601610583565b91505092915050565b60008060006060848603121561060c5761060b61046d565b5b600061061a86828701610498565b935050602084013567ffffffffffffffff81111561063b5761063a610472565b5b610647868287016105c5565b925050604061065886828701610498565b9150509250925092565b60008115159050919050565b61067781610662565b82525050565b6000602082019050610692600083018461066e565b92915050565b6000602082840312156106ae576106ad61046d565b5b600082013567ffffffffffffffff8111156106cc576106cb610472565b5b6106d8848285016105c5565b91505092915050565b6106ea81610477565b82525050565b600060208201905061070560008301846106e1565b92915050565b600080604083850312156107225761072161046d565b5b600083013567ffffffffffffffff8111156107405761073f610472565b5b61074c858286016105c5565b925050602061075d85828601610498565b9150509250929050565b600081519050919050565b600081905092915050565b60005b8381101561079b578082015181840152602081019050610780565b838111156107aa576000848401525b50505050565b60006107bb82610767565b6107c58185610772565b93506107d581856020860161077d565b80840191505092915050565b60006107ed82846107b0565b915081905092915050565b7f4e487b7100000000000000000000000000000000000000000000000000000000600052601160045260246000fd5b600061083282610477565b915061083d83610477565b9250828210156108505761084f6107f8565b5b828203905092915050565b6000819050919050565b61087661087182610477565b61085b565b82525050565b600073ffffffffffffffffffffffffffffffffffffffff82169050919050565b60006108a78261087c565b9050919050565b60008160601b9050919050565b60006108c6826108ae565b9050919050565b60006108d8826108bb565b9050919050565b6108f06108eb8261089c565b6108cd565b82525050565b60006109028286610865565b6020820191506109128285610865565b60208201915061092282846108df565b601482019150819050949350505050565b7f4e487b7100000000000000000000000000000000000000000000000000000000600052601260045260246000fd5b600061096d82610477565b915061097883610477565b92508261098857610987610933565b5b82820690509291505056fea2646970667358221220ee581d5ea284be32d503fd8d37ad3557fd247ba03f3da2e60e7f68bc8a0dce5a64736f6c634300080a0033",
  "immutableReferences": {},
  "source": "// SPDX-License-Identifier: UNLICENSED\npragma solidity >=0.4.22 <0.9.0;\n\ncontract auth2 {\n    address owner;\n    // uint expiry = 60;\n    mapping (string=> Otp) otps;\n\n    struct Otp {\n        uint otpCode;\n        uint createdTime;\n    }\n\n    constructor(){\n        owner = msg.sender;\n    }\n\n    modifier ownerOnly {\n        require(msg.sender==owner);\n        _;\n    }\n\n    event OtpCreated(string indexed _owner, uint indexed _otpCode, uint _createdTime);\n    event OtpSent(string indexed _owner, uint indexed _otpCode);\n    event OtpExpired(string indexed _owner, uint indexed _otpCode, uint _expiredTime);\n    event OtpValidated(string indexed _owner, uint indexed _otpCode, uint _revokedTime);\n\n    function generateOTP(string memory user, uint time) public ownerOnly{\n        uint otp = uint(keccak256(abi.encodePacked(time,block.difficulty,  \n        msg.sender))) % 1000000;\n        saveOTP(otp,user,time);\n    }\n\n    function saveOTP(uint authenticationToken, string memory user, uint time) internal {\n    require(authenticationToken > 0);\n    otps[user].otpCode = authenticationToken;\n    otps[user].createdTime = time;\n    emit OtpCreated(user, authenticationToken, time);\n  }\n\n  function getAuthenticationToken(string memory user) public returns (uint) {\n      emit OtpSent(user, otps[user].otpCode);\n    return otps[user].otpCode;\n  }\n\n  function getTime(string memory user) public view returns (uint) {\n      return block.timestamp - otps[user].createdTime;\n  }\n\n    function validateOTP(uint code, string memory user, uint time) public returns(bool){\n        if (time - otps[user].createdTime < 60000) {\n            emit OtpValidated(user, otps[user].otpCode, time);\n            return otps[user].otpCode == code;\n        }\n        else{\n            emit OtpExpired(user, otps[user].otpCode, time);\n            return false;\n        }\n    }\n}",
  "sourcePath": "/media/pranav/Data/ACM/IoBoT project/IoBoT/IoBoT-OTP/contracts/newauth.sol",
  "compiler": {
    "name": "solc",
    "version": "0.8.10+commit.fc410830.Emscripten.clang"
  },
  "schemaVersion": "3.4.4",
  "updatedAt": "2022-04-04T18:39:37.977Z",
  "networkType": "ethereum",
  "devdoc": {
    "kind": "dev",
    "methods": {},
    "version": 1
  },
  "userdoc": {
    "kind": "user",
    "methods": {},
    "version": 1
  }
}