{
  "contractName": "auth",
  "abi": [
    {
      "inputs": [],
      "stateMutability": "nonpayable",
      "type": "constructor"
    },
    {
      "inputs": [
        {
          "internalType": "address",
          "name": "user",
          "type": "address"
        }
      ],
      "name": "generateOTP",
      "outputs": [],
      "stateMutability": "nonpayable",
      "type": "function"
    },
    {
      "inputs": [
        {
          "internalType": "address",
          "name": "user",
          "type": "address"
        }
      ],
      "name": "getAuthenticationToken",
      "outputs": [
        {
          "internalType": "uint256",
          "name": "",
          "type": "uint256"
        }
      ],
      "stateMutability": "view",
      "type": "function",
      "constant": true
    },
    {
      "inputs": [
        {
          "internalType": "address",
          "name": "user",
          "type": "address"
        }
      ],
      "name": "getTime",
      "outputs": [
        {
          "internalType": "uint256",
          "name": "",
          "type": "uint256"
        }
      ],
      "stateMutability": "view",
      "type": "function",
      "constant": true
    },
    {
      "inputs": [
        {
          "internalType": "uint256",
          "name": "code",
          "type": "uint256"
        },
        {
          "internalType": "address",
          "name": "user",
          "type": "address"
        }
      ],
      "name": "validateOTP",
      "outputs": [
        {
          "internalType": "bool",
          "name": "",
          "type": "bool"
        }
      ],
      "stateMutability": "view",
      "type": "function",
      "constant": true
    }
  ],
  "bytecode": "0x608060405234801561001057600080fd5b50336000806101000a81548173ffffffffffffffffffffffffffffffffffffffff021916908373ffffffffffffffffffffffffffffffffffffffff160217905550610699806100606000396000f3fe608060405234801561001057600080fd5b506004361061004c5760003560e01c80633b4abc32146100515780634b70cec41461006d5780636d7482071461009d578063c7c48bc6146100cd575b600080fd5b61006b600480360381019061006691906103f7565b6100fd565b005b610087600480360381019061008291906103f7565b6101a3565b604051610094919061043d565b60405180910390f35b6100b760048036038101906100b291906103f7565b6101fa565b6040516100c4919061043d565b60405180910390f35b6100e760048036038101906100e29190610484565b610246565b6040516100f491906104df565b60405180910390f35b60008054906101000a900473ffffffffffffffffffffffffffffffffffffffff1673ffffffffffffffffffffffffffffffffffffffff163373ffffffffffffffffffffffffffffffffffffffff161461015557600080fd5b6000620f424042443360405160200161017093929190610563565b6040516020818303038152906040528051906020012060001c61019391906105cf565b905061019f81836102f5565b5050565b6000600160008373ffffffffffffffffffffffffffffffffffffffff1673ffffffffffffffffffffffffffffffffffffffff16815260200190815260200160002060010154426101f3919061062f565b9050919050565b6000600160008373ffffffffffffffffffffffffffffffffffffffff1673ffffffffffffffffffffffffffffffffffffffff168152602001908152602001600020600001549050919050565b6000603c600160008473ffffffffffffffffffffffffffffffffffffffff1673ffffffffffffffffffffffffffffffffffffffff1681526020019081526020016000206001015442610298919061062f565b10156102ea5782600160008473ffffffffffffffffffffffffffffffffffffffff1673ffffffffffffffffffffffffffffffffffffffff168152602001908152602001600020600001541490506102ef565b600090505b92915050565b6000821161030257600080fd5b81600160008373ffffffffffffffffffffffffffffffffffffffff1673ffffffffffffffffffffffffffffffffffffffff1681526020019081526020016000206000018190555042600160008373ffffffffffffffffffffffffffffffffffffffff1673ffffffffffffffffffffffffffffffffffffffff168152602001908152602001600020600101819055505050565b600080fd5b600073ffffffffffffffffffffffffffffffffffffffff82169050919050565b60006103c482610399565b9050919050565b6103d4816103b9565b81146103df57600080fd5b50565b6000813590506103f1816103cb565b92915050565b60006020828403121561040d5761040c610394565b5b600061041b848285016103e2565b91505092915050565b6000819050919050565b61043781610424565b82525050565b6000602082019050610452600083018461042e565b92915050565b61046181610424565b811461046c57600080fd5b50565b60008135905061047e81610458565b92915050565b6000806040838503121561049b5761049a610394565b5b60006104a98582860161046f565b92505060206104ba858286016103e2565b9150509250929050565b60008115159050919050565b6104d9816104c4565b82525050565b60006020820190506104f460008301846104d0565b92915050565b6000819050919050565b61051561051082610424565b6104fa565b82525050565b60008160601b9050919050565b60006105338261051b565b9050919050565b600061054582610528565b9050919050565b61055d610558826103b9565b61053a565b82525050565b600061056f8286610504565b60208201915061057f8285610504565b60208201915061058f828461054c565b601482019150819050949350505050565b7f4e487b7100000000000000000000000000000000000000000000000000000000600052601260045260246000fd5b60006105da82610424565b91506105e583610424565b9250826105f5576105f46105a0565b5b828206905092915050565b7f4e487b7100000000000000000000000000000000000000000000000000000000600052601160045260246000fd5b600061063a82610424565b915061064583610424565b92508282101561065857610657610600565b5b82820390509291505056fea2646970667358221220c4dbdeb4b919485d80a2645015d3e1f26a97edda2191069706a4b61939dc4c3964736f6c634300080a0033",
  "immutableReferences": {},
  "source": "// SPDX-License-Identifier: UNLICENSED\npragma solidity >=0.4.22 <0.9.0;\n\ncontract auth {\n    address owner;\n    // uint expiry = 60;\n    mapping (address=> Otp) otps;\n\n    struct Otp {\n        uint otpCode;\n        uint createdTime;\n    }\n\n    constructor(){\n        owner = msg.sender;\n    }\n\n    modifier ownerOnly {\n        require(msg.sender==owner);\n        _;\n    }\n\n    function generateOTP(address user) public ownerOnly{\n        uint otp = uint(keccak256(abi.encodePacked(block.timestamp,block.difficulty,  \n        msg.sender))) % 1000000;\n        saveOTP(otp,user);\n    }\n\n    function saveOTP(uint authenticationToken, address user) internal {\n    require(authenticationToken > 0);\n    otps[user].otpCode = authenticationToken;\n    otps[user].createdTime = block.timestamp;\n  }\n\n  function getAuthenticationToken(address user) public view returns (uint) {\n    return otps[user].otpCode;\n  }\n\n  function getTime(address user) public view returns (uint) {\n      return block.timestamp - otps[user].createdTime;\n  }\n\n    function validateOTP(uint code, address user) public view returns(bool){\n        if (block.timestamp - otps[user].createdTime < 1 minutes) {\n            return otps[user].otpCode == code;\n        }\n        else{\n            return false;\n        }\n    }\n}",
  "sourcePath": "/media/pranav/Data/ACM/IoBoT project/IoBoT/IoBoT-OTP/contracts/authentication.sol",
  "compiler": {
    "name": "solc",
    "version": "0.8.10+commit.fc410830.Emscripten.clang"
  },
  "schemaVersion": "3.4.4",
  "updatedAt": "2022-03-22T18:34:10.787Z",
  "networkType": "ethereum",
  "devdoc": {
    "kind": "dev",
    "methods": {},
    "version": 1
  },
  "userdoc": {
    "kind": "user",
    "methods": {},
    "version": 1
  }
}